:020000040800F2
:100000003004002081020008E1020008E10200083B
:10001000E1020008E1020008E1020008000000001F
:10002000000000000000000000000000E1020008E5
:10003000E102000800000000E1020008E1020008FF
:10004000E1020008E1020008E1020008E102000804
:10005000E1020008E1020008E1020008E1020008F4
:10006000E1020008E1020008E1020008E1020008E4
:10007000E1020008E1020008E1020008E1020008D4
:10008000E1020008E1020008E1020008E1020008C4
:10009000E1020008E1020008E1020008E1020008B4
:1000A000E1020008E1020008E1020008E1020008A4
:1000B000E1020008E1020008E1020008E102000894
:1000C000E1020008E1020008E1020008E102000884
:1000D000E102000805060008E1020008E10200084C
:1000E000E1020008E1020008E1020008000000004F
:1000F0000000000000000000000000000000000000
:1001000000000000000000005FF808F180B500AFBB
:10011000154B1B68144A43F001031360124B5A68D5
:100120001149124B13404B600F4B1B680E4A23F0D2
:10013000847323F4803313600B4B1B680A4A23F447
:1001400080231360084B5B68074A23F4FE03536067
:10015000054B4FF41F029A6000F00CF8044B4FF06F
:1001600000629A6000BF80BD001002400000FFF8EE
:1001700000ED00E080B500AF00F002F800BF80BDE8
:1001800080B483B000AF00237B6000233B603A4B18
:100190001B68394A43F480331360374B1B6803F400
:1001A00000333B607B6801337B603B68002B03D1ED
:1001B0007B68B3F5A06FF0D12F4B1B6803F40033BD
:1001C000002B02D001233B6001E000233B603B6831
:1001D000012B4BD1294B1B68284A43F010031360B5
:1001E000264B1B68254A23F003031360234B1B682F
:1001F000224A43F0020313601F4B1F4A5B6853609F
:100200001D4B1D4A5B6853601B4B5B681A4A43F4E5
:1002100080635360184B5B68174A23F47C13536068
:10022000154B5B68144A43F4E8135360124B1B6888
:10023000114A43F08073136000BF0F4B1B6803F03B
:100240000073002BF9D00C4B5B680B4A23F00303BF
:100250005360094B5B68084A43F00203536000BFD8
:10026000054B5B6803F00C03082BF9D100BF0C377A
:10027000BD4680BC704700BF001002400020024015
:1002800080B582B000AF114B7B60114B3B6007E043
:100290007A68131D7B603B68191D396012681A600B
:1002A0003B680C4A9342F3D30B480C494FF00002D1
:1002B0008842B8BF40F8042BFADBFFF727FF00F0B5
:1002C00009FA00BF0837BD4680BD00BF460D0008D3
:1002D0000000002014000020140000203000002046
:1002E00080B400AFFEE780B489B000AF78603960B9
:1002F0000023FB6100233B610023BB610023FB6003
:1003000000237B610023BB603B68DB7803F00F03B5
:10031000FB613B68DB7803F01003002B05D03B68E2
:100320009B781A46FB691343FB613B681B88DBB271
:10033000002B44D07B681B687B610023BB6138E0E5
:100340000122BB6902FA03F3FB603B681B881A4673
:10035000FB6813403B613A69FB689A4226D1BB694E
:100360009B00FB600F22FB6802FA03F3BB60BB68D3
:10037000DB437A6913407B61FA69FB6802FA03F395
:100380007A6913437B613B68DB78282B05D1012216
:10039000BB699A407B685A6108E03B68DB78482B70
:1003A00004D10122BB699A407B681A61BB690133A1
:1003B000BB61BB69072BC3D97B687A691A603B684C
:1003C0001B88FF2B46D97B685B687B610023BB6180
:1003D0003AE0BB690833012202FA03F3FB603B6891
:1003E0001B881A46FB6813403B613A69FB689A42D6
:1003F00027D1BB699B00FB600F22FB6802FA03F365
:10040000BB60BB68DB437A6913407B61FA69FB68B8
:1004100002FA03F37A6913437B613B68DB78282B8C
:1004200005D1BB69083301229A407B685A613B6859
:10043000DB78482B05D1BB69083301229A407B68E1
:100440001A61BB690133BB61BB69072BC1D97B68EA
:100450007A695A6000BF2437BD4680BC704780B4BB
:1004600083B000AF78607B684FF6FF721A807B68BC
:1004700002229A707B680422DA7000BF0C37BD46F6
:1004800080BC704780B483B000AF78600B467B803F
:1004900013467B707B78002B03D07A887B681A61C7
:1004A00002E07A887B685A6100BF0C37BD4680BC89
:1004B0007047000080B483B000AF0346FB71FB7946
:1004C00003F01F03012202FA03F1054A97F90730EE
:1004D0005B0942F8231000BF0C37BD4680BC704753
:1004E00000E100E080B586B000AF0121042000F0FB
:1004F00003FA07F114031846FFF7B1FF0223BB828A
:100500001023FB750323BB7507F11403194620481C
:10051000FFF7E9FE1823FB754FF40073BB8207F168
:10052000140319461A48FFF7DEFE0423FB754FF447
:100530008063BB8207F1140319461548FFF7D3FE09
:1005400001214FF4804000F0D7F94FF416537B603F
:1005500000233B820C23FB810023BB8100237B8192
:1005600000233B813B1D19460A4800F0E3F90122B4
:1005700040F22551074800F0B6FA0121054800F085
:1005800093FA2520FFF796FF00BF1837BD4680BDC0
:10059000000801400038014080B582B000AF03463A
:1005A000FB8000BF4021074800F004FB0346002BFE
:1005B000F8D0FB881946034800F0DCFA00BF083782
:1005C000BD4680BD0038014080B584B000AF786082
:1005D0000023FB600AE0FB687A6813441B789BB237
:1005E0001846FFF7D9FFFB680133FB60786800F01D
:1005F00057FB0246FB689A42EDD200BF1037BD465A
:1006000080BD000080B500AF40F22551154800F0D4
:10061000ECFA0346012B23D1124B1B889BB203F04B
:100620000F03002B19D10F4800F0B5FA03461A4604
:100630000D4B1B68D1B20D4AD1540B4B1B68591C92
:100640000B4B83FB01235A10CB17D21A1346DB0046
:100650001344CA1A044B1A6002E0024800F09BFAE5
:1006600000BF80BD003801401C0000202400002095
:10067000398EE33880B582B000AF00BF114B1A68E5
:10068000114B1B689A42F9D00E4B1B680F4AD35C82
:10069000FB800C4B1B68591C0D4B83FB01235A102C
:1006A000CB17D21A1346DB001344CA1A054B1A6043
:1006B000FB881846FFF770FFFB8818460837BD46D1
:1006C00080BD00BF180000201C0000202400002076
:1006D000398EE33880B582B000AF00233B60FFF76E
:1006E00001FF2848FFF770FFFFF7C4FF0346FB80B8
:1006F000FB886F2B20D1FFF7BDFF0346FB80FB88F3
:100700006E2B03D1204B00221A6018E0FB88662B69
:100710000ED1FFF7AFFF0346FB80FB88662B03D1AA
:10072000194B01221A600AE01848FFF74DFF06E056
:100730001648FFF749FF02E01448FFF745FF124B48
:100740001B68002B14BF01230023DBB21A460221D1
:100750000F48FFF797FEFFF78DFF0346FB80FB88EE
:100760000D2B01D101233B603B68002BC0D0094811
:10077000FFF72AFF00233B60FFF77CFF0346FB8067
:10078000B6E700BFFC0C000814000020340D000880
:1007900000080140440D000880B487B000AF7860C5
:1007A00000237B6100233B610023FB600023BB60CF
:1007B0004C4B5B6803F00C037B617B69042B07D017
:1007C000082B09D0002B33D17B68474A1A6033E0ED
:1007D0007B68454A1A602FE0424B5B6803F4701354
:1007E0003B61404B5B6803F48033FB603B699B0CCF
:1007F00002333B61FB68002B06D13B693B4A02FB9D
:1008000003F27B681A6017E0364B5B6803F4003331
:10081000002B06D03B69354A02FB03F27B681A6065
:100820000AE03B69304A02FB03F27B681A6003E08E
:100830007B682D4A1A6000BF2A4B5B6803F0F00307
:100840007B617B691B097B61294A7B6913441B78A7
:10085000DBB2BB607B681A68BB68DA407B685A60B1
:10086000204B5B6803F4E0637B617B691B0A7B615F
:100870001F4A7B6913441B78DBB2BB607B685A68F4
:10088000BB68DA407B689A60164B5B6803F4605380
:100890007B617B69DB0A7B61154A7B6913441B78AA
:1008A000DBB2BB607B685A68BB68DA407B68DA60A1
:1008B0000C4B5B6803F440437B617B699B0B7B6162
:1008C0000C4A7B6913441B78DBB2BB607B68DA6837
:1008D000BB68B2FBF3F27B681A6100BF1C37BD46F0
:1008E00080BC70470010024000127A0000093D00F1
:1008F000000000201000002080B483B000AF7860BA
:100900000B46FB70FB78002B06D0094B9A6908490F
:100910007B6813438B6106E0054B9A697B68DB4378
:10092000034913408B6100BF0C37BD4680BC704744
:100930000010024080B58CB000AF786039600023B1
:10094000FB620023BB6200237B6200233B62002327
:10095000FB617B68FB617B681B8A9BB2FB62FA6A66
:100960004CF6FF731340FB623B68DB881A46FB6A58
:100970001343FB62FB6A9AB27B681A827B689B898D
:100980009BB2FB62FA6A4EF6F3131340FB623B68BC
:100990009A883B681B8913439AB23B685B8913436F
:1009A0009BB21A46FB6A1343FB62FB6A9AB27B68EE
:1009B0009A817B689B8A9BB2FB62FA6A4FF6FF437F
:1009C0001340FB623B689B891A46FB6A1343FB6238
:1009D000FB6A9AB27B689A8207F108031846FFF710
:1009E000DBFEFB692E4A934202D17B69BB6201E0C8
:1009F0003B69BB627B689B899BB21BB2002B0CDA04
:100A0000BA6A13469B0013449A001A443B681B6859
:100A10005B00B2FBF3F37B620BE0BA6A13469B0008
:100A200013449A001A443B681B689B00B2FBF3F323
:100A30007B627B6A1B4AA2FB03235B091B01FB62EF
:100A4000FB6A1B09642202FB03F37A6AD31A3B6236
:100A50007B689B899BB21BB2002B0CDA3B6ADB00E4
:100A60003233104AA2FB03235B0903F00703FA6A3F
:100A70001343FB620BE03B6A1B013233094AA2FBC2
:100A800003235B0903F00F03FA6A1343FB62FB6A5B
:100A90009AB27B681A8100BF3037BD4680BD00BF67
:100AA000003801401F85EB5180B483B000AF7860FF
:100AB0000B46FB70FB78002B08D07B689B899BB2B0
:100AC00043F400539AB27B689A8107E07B689B8964
:100AD0009BB223F400539AB27B689A8100BF0C3713
:100AE000BD4680BC704780B487B000AF78600B46CD
:100AF0007B8013467B7000233B610023FB60002357
:100B0000BB6000237B617B687B617B88DBB25B0918
:100B1000DBB23B617B8803F01F03FB600122FB68B3
:100B200002FA03F3BB603B69012B03D17B690C33F1
:100B30007B6109E03B69022B03D17B6910337B6148
:100B400002E07B6914337B617B78002B06D07B69E4
:100B500019687B69BA680A431A6006E07B691968FC
:100B6000BB68DA437B690A401A6000BF1C37BD4688
:100B700080BC704780B483B000AF78600B467B8048
:100B80007B88C3F308039AB27B689A8000BF0C3756
:100B9000BD4680BC704780B483B000AF78607B688E
:100BA0009B889BB2C3F308039BB218460C37BD4623
:100BB00080BC704780B485B000AF78600B467B8006
:100BC0000023FB737B681B889AB27B8813409BB21F
:100BD000002B02D00123FB7301E00023FB73FB7B9E
:100BE00018461437BD4680BC704780B487B000AF4C
:100BF00078600B467B800023FB6000237B61002331
:100C0000BB600023FB747B88DBB25B09DBB2BB609B
:100C10007B8803F01F037B6101227B6902FA03F3E7
:100C20007B61BB68012B07D17B689B899BB21A460D
:100C30007B6913407B6111E0BB68022B07D17B68A5
:100C40001B8A9BB21A467B6913407B6106E07B6876
:100C50009B8A9BB21A467B6913407B617B881B0A87
:100C60009BB2FB600122FB6802FA03F3FB607B6826
:100C70001B889BB21A46FB681340FB607B69002B04
:100C800005D0FB68002B02D00123FB7401E0002398
:100C9000FB74FB7C18461C37BD4680BC70470000C7
:100CA00020F0030110F00300C0F1000051F8043BF4
:100CB00000F1040C4FEACC0C6FF000021CBF22FACA
:100CC0000CF213434FF0010C4CEA0C2C4CEA0C4C88
:100CD000A3EB0C0222EA030212EACC1204BF51F881
:100CE000043B0430F4D0C2F1000102EA0102B2FA7E
:100CF00082F2C2F11F0200EBD20070470D6F6E202E
:100D0000746F206F6E2C206F666620746F206F6684
:100D1000662056206B6F6E7A65206B6F6D616E6416
:100D200069206E617A6D69746520454E5445520A9A
:100D30000D0000000A202121214552524F5221214D
:060D4000210A0D000A006B
:100D4600000000000102030401020304060708096B
:040D56000204060885
:0400000508000000EF
:00000001FF
